{
  "contractName": "PatientDMS",
  "abi": [
    {
      "inputs": [],
      "stateMutability": "nonpayable",
      "type": "constructor"
    },
    {
      "inputs": [
        {
          "internalType": "string",
          "name": "_name",
          "type": "string"
        },
        {
          "internalType": "string",
          "name": "_dob",
          "type": "string"
        },
        {
          "internalType": "uint256",
          "name": "_w",
          "type": "uint256"
        },
        {
          "internalType": "uint256",
          "name": "_h",
          "type": "uint256"
        },
        {
          "internalType": "string",
          "name": "_tests",
          "type": "string"
        },
        {
          "internalType": "address",
          "name": "_account",
          "type": "address"
        }
      ],
      "name": "addPatient",
      "outputs": [],
      "stateMutability": "nonpayable",
      "type": "function"
    },
    {
      "inputs": [
        {
          "internalType": "string",
          "name": "_name",
          "type": "string"
        },
        {
          "internalType": "string",
          "name": "_bio",
          "type": "string"
        },
        {
          "internalType": "address",
          "name": "_account",
          "type": "address"
        }
      ],
      "name": "addReseacher",
      "outputs": [],
      "stateMutability": "nonpayable",
      "type": "function"
    },
    {
      "inputs": [],
      "name": "getNonVerifiedResearchers",
      "outputs": [
        {
          "components": [
            {
              "internalType": "string",
              "name": "name",
              "type": "string"
            },
            {
              "internalType": "string",
              "name": "bio",
              "type": "string"
            },
            {
              "internalType": "address",
              "name": "account",
              "type": "address"
            },
            {
              "internalType": "uint8",
              "name": "status",
              "type": "uint8"
            }
          ],
          "internalType": "struct PatientDMS.researcher[]",
          "name": "",
          "type": "tuple[]"
        }
      ],
      "stateMutability": "view",
      "type": "function",
      "constant": true
    },
    {
      "inputs": [],
      "name": "getVerifiedResearchers",
      "outputs": [
        {
          "components": [
            {
              "internalType": "string",
              "name": "name",
              "type": "string"
            },
            {
              "internalType": "string",
              "name": "bio",
              "type": "string"
            },
            {
              "internalType": "address",
              "name": "account",
              "type": "address"
            },
            {
              "internalType": "uint8",
              "name": "status",
              "type": "uint8"
            }
          ],
          "internalType": "struct PatientDMS.researcher[]",
          "name": "",
          "type": "tuple[]"
        }
      ],
      "stateMutability": "view",
      "type": "function",
      "constant": true
    },
    {
      "inputs": [
        {
          "internalType": "address",
          "name": "_account",
          "type": "address"
        }
      ],
      "name": "verifyReseacher",
      "outputs": [],
      "stateMutability": "nonpayable",
      "type": "function"
    },
    {
      "inputs": [
        {
          "internalType": "address",
          "name": "_account",
          "type": "address"
        }
      ],
      "name": "isResearcherVerified",
      "outputs": [
        {
          "internalType": "uint8",
          "name": "stuts",
          "type": "uint8"
        }
      ],
      "stateMutability": "view",
      "type": "function",
      "constant": true
    },
    {
      "inputs": [],
      "name": "getPatientData",
      "outputs": [
        {
          "components": [
            {
              "internalType": "string",
              "name": "name",
              "type": "string"
            },
            {
              "internalType": "string",
              "name": "dob",
              "type": "string"
            },
            {
              "internalType": "uint256",
              "name": "weight",
              "type": "uint256"
            },
            {
              "internalType": "uint256",
              "name": "height",
              "type": "uint256"
            },
            {
              "internalType": "string",
              "name": "tests",
              "type": "string"
            },
            {
              "internalType": "uint256",
              "name": "bmi",
              "type": "uint256"
            },
            {
              "internalType": "address",
              "name": "account",
              "type": "address"
            }
          ],
          "internalType": "struct PatientDMS.patient[]",
          "name": "",
          "type": "tuple[]"
        }
      ],
      "stateMutability": "view",
      "type": "function",
      "constant": true
    }
  ],
  "bytecode": "0x608060405234801561001057600080fd5b50336000806101000a81548173ffffffffffffffffffffffffffffffffffffffff021916908373ffffffffffffffffffffffffffffffffffffffff160217905550611acc806100606000396000f3fe608060405234801561001057600080fd5b506004361061007d5760003560e01c80634f8b0cad1161005b5780634f8b0cad146100ee578063b7ee7f661461010a578063d544d8a114610126578063f626b959146101425761007d565b806313b88775146100825780634344b743146100b25780634a59400f146100d0575b600080fd5b61009c60048036038101906100979190611371565b610160565b6040516100a99190611867565b60405180910390f35b6100ba610298565b6040516100c79190611803565b60405180910390f35b6100d861056f565b6040516100e59190611825565b60405180910390f35b61010860048036038101906101039190611371565b6108be565b005b610124600480360381019061011f919061139a565b610a81565b005b610140600480360381019061013b9190611423565b610c46565b005b61014a610e77565b6040516101579190611825565b60405180910390f35b600080600090505b6002805490508160ff161015610291578273ffffffffffffffffffffffffffffffffffffffff1660028260ff16815481106101cc577f4e487b7100000000000000000000000000000000000000000000000000000000600052603260045260246000fd5b906000526020600020906003020160020160009054906101000a900473ffffffffffffffffffffffffffffffffffffffff1673ffffffffffffffffffffffffffffffffffffffff16141561027e5760028160ff1681548110610257577f4e487b7100000000000000000000000000000000000000000000000000000000600052603260045260246000fd5b906000526020600020906003020160020160149054906101000a900460ff16915050610293565b8080610289906119cf565b915050610168565b505b919050565b606060016102a533610160565b60ff16146102e8576040517f08c379a00000000000000000000000000000000000000000000000000000000081526004016102df90611847565b60405180910390fd5b6001805480602002602001604051908101604052809291908181526020016000905b8282101561056657838290600052602060002090600702016040518060e001604052908160008201805461033d9061199d565b80601f01602080910402602001604051908101604052809291908181526020018280546103699061199d565b80156103b65780601f1061038b576101008083540402835291602001916103b6565b820191906000526020600020905b81548152906001019060200180831161039957829003601f168201915b505050505081526020016001820180546103cf9061199d565b80601f01602080910402602001604051908101604052809291908181526020018280546103fb9061199d565b80156104485780601f1061041d57610100808354040283529160200191610448565b820191906000526020600020905b81548152906001019060200180831161042b57829003601f168201915b5050505050815260200160028201548152602001600382015481526020016004820180546104759061199d565b80601f01602080910402602001604051908101604052809291908181526020018280546104a19061199d565b80156104ee5780601f106104c3576101008083540402835291602001916104ee565b820191906000526020600020905b8154815290600101906020018083116104d157829003601f168201915b50505050508152602001600582015481526020016006820160009054906101000a900473ffffffffffffffffffffffffffffffffffffffff1673ffffffffffffffffffffffffffffffffffffffff1673ffffffffffffffffffffffffffffffffffffffff16815250508152602001906001019061030a565b50505050905090565b6060600060028054905067ffffffffffffffff8111156105b8577f4e487b7100000000000000000000000000000000000000000000000000000000600052604160045260246000fd5b6040519080825280602002602001820160405280156105f157816020015b6105de6111c6565b8152602001906001900390816105d65790505b50905060005b6002805490508160ff1610156108b657600160028260ff1681548110610646577f4e487b7100000000000000000000000000000000000000000000000000000000600052603260045260246000fd5b906000526020600020906003020160020160149054906101000a900460ff1660ff1614156108a35760028160ff16815481106106ab577f4e487b7100000000000000000000000000000000000000000000000000000000600052603260045260246000fd5b90600052602060002090600302016040518060800160405290816000820180546106d49061199d565b80601f01602080910402602001604051908101604052809291908181526020018280546107009061199d565b801561074d5780601f106107225761010080835404028352916020019161074d565b820191906000526020600020905b81548152906001019060200180831161073057829003601f168201915b505050505081526020016001820180546107669061199d565b80601f01602080910402602001604051908101604052809291908181526020018280546107929061199d565b80156107df5780601f106107b4576101008083540402835291602001916107df565b820191906000526020600020905b8154815290600101906020018083116107c257829003601f168201915b505050505081526020016002820160009054906101000a900473ffffffffffffffffffffffffffffffffffffffff1673ffffffffffffffffffffffffffffffffffffffff1673ffffffffffffffffffffffffffffffffffffffff1681526020016002820160149054906101000a900460ff1660ff1660ff1681525050828260ff1681518110610897577f4e487b7100000000000000000000000000000000000000000000000000000000600052603260045260246000fd5b60200260200101819052505b80806108ae906119cf565b9150506105f7565b508091505090565b3373ffffffffffffffffffffffffffffffffffffffff1660008054906101000a900473ffffffffffffffffffffffffffffffffffffffff1673ffffffffffffffffffffffffffffffffffffffff161461094c576040517f08c379a000000000000000000000000000000000000000000000000000000000815260040161094390611847565b60405180910390fd5b60005b6002805490508160ff161015610a7d578173ffffffffffffffffffffffffffffffffffffffff1660028260ff16815481106109b3577f4e487b7100000000000000000000000000000000000000000000000000000000600052603260045260246000fd5b906000526020600020906003020160020160009054906101000a900473ffffffffffffffffffffffffffffffffffffffff1673ffffffffffffffffffffffffffffffffffffffff161415610a6a57600160028260ff1681548110610a40577f4e487b7100000000000000000000000000000000000000000000000000000000600052603260045260246000fd5b906000526020600020906003020160020160146101000a81548160ff021916908360ff1602179055505b8080610a75906119cf565b91505061094f565b5050565b610a896111c6565b85858080601f016020809104026020016040519081016040528093929190818152602001838380828437600081840152601f19601f82011690508083019250505050505050816000018190525083838080601f016020809104026020016040519081016040528093929190818152602001838380828437600081840152601f19601f82011690508083019250505050505050816020018190525081816040019073ffffffffffffffffffffffffffffffffffffffff16908173ffffffffffffffffffffffffffffffffffffffff16815250506000816060019060ff16908160ff168152505060028190806001815401808255809150506001900390600052602060002090600302016000909190919091506000820151816000019080519060200190610bb6929190611207565b506020820151816001019080519060200190610bd3929190611207565b5060408201518160020160006101000a81548173ffffffffffffffffffffffffffffffffffffffff021916908373ffffffffffffffffffffffffffffffffffffffff16021790555060608201518160020160146101000a81548160ff021916908360ff1602179055505050505050505050565b610c4e61128d565b89898080601f016020809104026020016040519081016040528093929190818152602001838380828437600081840152601f19601f82011690508083019250505050505050816000018190525087878080601f016020809104026020016040519081016040528093929190818152602001838380828437600081840152601f19601f820116905080830192505050505050508160200181905250858160400181815250508481606001818152505083838080601f016020809104026020016040519081016040528093929190818152602001838380828437600081840152601f19601f820116905080830192505050505050508160800181905250818160c0019073ffffffffffffffffffffffffffffffffffffffff16908173ffffffffffffffffffffffffffffffffffffffff168152505060018190806001815401808255809150506001900390600052602060002090600702016000909190919091506000820151816000019080519060200190610dc9929190611207565b506020820151816001019080519060200190610de6929190611207565b5060408201518160020155606082015181600301556080820151816004019080519060200190610e17929190611207565b5060a0820151816005015560c08201518160060160006101000a81548173ffffffffffffffffffffffffffffffffffffffff021916908373ffffffffffffffffffffffffffffffffffffffff160217905550505050505050505050505050565b6060600060028054905067ffffffffffffffff811115610ec0577f4e487b7100000000000000000000000000000000000000000000000000000000600052604160045260246000fd5b604051908082528060200260200182016040528015610ef957816020015b610ee66111c6565b815260200190600190039081610ede5790505b50905060005b6002805490508160ff1610156111be57600060028260ff1681548110610f4e577f4e487b7100000000000000000000000000000000000000000000000000000000600052603260045260246000fd5b906000526020600020906003020160020160149054906101000a900460ff1660ff1614156111ab5760028160ff1681548110610fb3577f4e487b7100000000000000000000000000000000000000000000000000000000600052603260045260246000fd5b9060005260206000209060030201604051806080016040529081600082018054610fdc9061199d565b80601f01602080910402602001604051908101604052809291908181526020018280546110089061199d565b80156110555780601f1061102a57610100808354040283529160200191611055565b820191906000526020600020905b81548152906001019060200180831161103857829003601f168201915b5050505050815260200160018201805461106e9061199d565b80601f016020809104026020016040519081016040528092919081815260200182805461109a9061199d565b80156110e75780601f106110bc576101008083540402835291602001916110e7565b820191906000526020600020905b8154815290600101906020018083116110ca57829003601f168201915b505050505081526020016002820160009054906101000a900473ffffffffffffffffffffffffffffffffffffffff1673ffffffffffffffffffffffffffffffffffffffff1673ffffffffffffffffffffffffffffffffffffffff1681526020016002820160149054906101000a900460ff1660ff1660ff1681525050828260ff168151811061119f577f4e487b7100000000000000000000000000000000000000000000000000000000600052603260045260246000fd5b60200260200101819052505b80806111b6906119cf565b915050610eff565b508091505090565b60405180608001604052806060815260200160608152602001600073ffffffffffffffffffffffffffffffffffffffff168152602001600060ff1681525090565b8280546112139061199d565b90600052602060002090601f016020900481019282611235576000855561127c565b82601f1061124e57805160ff191683800117855561127c565b8280016001018555821561127c579182015b8281111561127b578251825591602001919060010190611260565b5b50905061128991906112e0565b5090565b6040518060e00160405280606081526020016060815260200160008152602001600081526020016060815260200160008152602001600073ffffffffffffffffffffffffffffffffffffffff1681525090565b5b808211156112f95760008160009055506001016112e1565b5090565b60008135905061130c81611a68565b92915050565b60008083601f84011261132457600080fd5b8235905067ffffffffffffffff81111561133d57600080fd5b60208301915083600182028301111561135557600080fd5b9250929050565b60008135905061136b81611a7f565b92915050565b60006020828403121561138357600080fd5b6000611391848285016112fd565b91505092915050565b6000806000806000606086880312156113b257600080fd5b600086013567ffffffffffffffff8111156113cc57600080fd5b6113d888828901611312565b9550955050602086013567ffffffffffffffff8111156113f757600080fd5b61140388828901611312565b93509350506040611416888289016112fd565b9150509295509295909350565b600080600080600080600080600060c08a8c03121561144157600080fd5b60008a013567ffffffffffffffff81111561145b57600080fd5b6114678c828d01611312565b995099505060208a013567ffffffffffffffff81111561148657600080fd5b6114928c828d01611312565b975097505060406114a58c828d0161135c565b95505060606114b68c828d0161135c565b94505060808a013567ffffffffffffffff8111156114d357600080fd5b6114df8c828d01611312565b935093505060a06114f28c828d016112fd565b9150509295985092959850929598565b600061150e83836116c2565b905092915050565b6000611522838361176c565b905092915050565b61153381611921565b82525050565b6000611544826118a2565b61154e81856118dd565b93508360208202850161156085611882565b8060005b8581101561159c578484038952815161157d8582611502565b9450611588836118c3565b925060208a01995050600181019050611564565b50829750879550505050505092915050565b60006115b9826118ad565b6115c381856118ee565b9350836020820285016115d585611892565b8060005b8581101561161157848403895281516115f28582611516565b94506115fd836118d0565b925060208a019950506001810190506115d9565b50829750879550505050505092915050565b600061162e826118b8565b61163881856118ff565b935061164881856020860161196a565b61165181611a57565b840191505092915050565b6000611669603283611910565b91507f796f7520646f6e277420686176652070726976696c6967657320746f2061636360008301527f6573732074686973207265736f757263652e00000000000000000000000000006020830152604082019050919050565b600060e08301600083015184820360008601526116df8282611623565b915050602083015184820360208601526116f98282611623565b915050604083015161170e60408601826117d6565b50606083015161172160608601826117d6565b50608083015184820360808601526117398282611623565b91505060a083015161174e60a08601826117d6565b5060c083015161176160c086018261152a565b508091505092915050565b600060808301600083015184820360008601526117898282611623565b915050602083015184820360208601526117a38282611623565b91505060408301516117b8604086018261152a565b5060608301516117cb60608601826117e5565b508091505092915050565b6117df81611953565b82525050565b6117ee8161195d565b82525050565b6117fd8161195d565b82525050565b6000602082019050818103600083015261181d8184611539565b905092915050565b6000602082019050818103600083015261183f81846115ae565b905092915050565b600060208201905081810360008301526118608161165c565b9050919050565b600060208201905061187c60008301846117f4565b92915050565b6000819050602082019050919050565b6000819050602082019050919050565b600081519050919050565b600081519050919050565b600081519050919050565b6000602082019050919050565b6000602082019050919050565b600082825260208201905092915050565b600082825260208201905092915050565b600082825260208201905092915050565b600082825260208201905092915050565b600061192c82611933565b9050919050565b600073ffffffffffffffffffffffffffffffffffffffff82169050919050565b6000819050919050565b600060ff82169050919050565b60005b8381101561198857808201518184015260208101905061196d565b83811115611997576000848401525b50505050565b600060028204905060018216806119b557607f821691505b602082108114156119c9576119c8611a28565b5b50919050565b60006119da8261195d565b915060ff8214156119ee576119ed6119f9565b5b600182019050919050565b7f4e487b7100000000000000000000000000000000000000000000000000000000600052601160045260246000fd5b7f4e487b7100000000000000000000000000000000000000000000000000000000600052602260045260246000fd5b6000601f19601f8301169050919050565b611a7181611921565b8114611a7c57600080fd5b50565b611a8881611953565b8114611a9357600080fd5b5056fea26469706673582212202c70b26d37e1920bff24bcc40e50d2f1d381d249c36740db46ed78b6a7c5099464736f6c63430008000033",
  "immutableReferences": {},
  "source": "// SPDX-License-Identifier: MIT\r\n// solium-disable linebreak-style\r\npragma solidity >= 0.4.22 < 0.9.0;\r\n\r\ncontract PatientDMS {\r\n\r\n    address contractOwner;\r\n\r\n    // a template for a patient\r\n    struct patient {\r\n        string name;\r\n        string dob;\r\n        uint weight;\r\n        uint height;\r\n        string tests;\r\n        uint bmi;\r\n        address account;\r\n    }\r\n\r\n    // this array contain patients\r\n    patient [] patients; \r\n\r\n    // a tempate for a reseachers\r\n    struct researcher {\r\n        string name;\r\n        string bio;\r\n        address account;\r\n        uint8 status ;\r\n    }\r\n\r\n    // this array contains reseachers\r\n    researcher[] researchers;\r\n\r\n    constructor() {\r\n        contractOwner = msg.sender;\r\n    }\r\n\r\n    modifier isOwner() {\r\n        require(contractOwner == msg.sender, \"you don't have priviliges to access this resource.\");\r\n        _;\r\n    }\r\n\r\n    modifier isResearcher() {\r\n        require( isResearcherVerified(msg.sender) == 1, \"you don't have priviliges to access this resource.\");\r\n        _;\r\n    }\r\n\r\n    function addPatient(string calldata _name, string calldata _dob, uint _w, uint _h, string calldata _tests, address _account) public {\r\n        patient memory tempPatient;\r\n        tempPatient.name = _name;\r\n        tempPatient.dob = _dob;\r\n        tempPatient.weight = _w;\r\n        tempPatient.height = _h;\r\n        tempPatient.tests = _tests;\r\n        tempPatient.account = _account;\r\n        patients.push(tempPatient);\r\n    }\r\n\r\n    function addReseacher(string calldata _name, string calldata _bio, address _account) public {\r\n        researcher memory tempReseacher;\r\n        tempReseacher.name = _name;\r\n        tempReseacher.bio = _bio;\r\n        tempReseacher.account = _account;\r\n        tempReseacher.status = 0;\r\n        researchers.push(tempReseacher);\r\n    }\r\n\r\n    function getNonVerifiedResearchers() public view returns(researcher[] memory) {\r\n        researcher [] memory nonResearcher = new researcher[](researchers.length);\r\n        for(uint8 i=0; i<researchers.length; i++) {\r\n            if( researchers[i].status == 0) {\r\n                nonResearcher[i] = researchers[i];\r\n            }\r\n        }\r\n        return nonResearcher;\r\n    }  \r\n\r\n    function getVerifiedResearchers() public view returns(researcher[] memory) {\r\n        researcher [] memory vResearcher = new researcher[](researchers.length);\r\n        for(uint8 i=0; i<researchers.length; i++) {\r\n            if( researchers[i].status == 1) {\r\n                vResearcher[i] = researchers[i];\r\n            }\r\n        }\r\n        return vResearcher;\r\n    }   \r\n\r\n    // can only access by the contract owner\r\n    function verifyReseacher(address _account) public isOwner {\r\n        for(uint8 i=0; i<researchers.length; i++) {\r\n            if( researchers[i].account == _account) {\r\n                researchers[i].status = 1;\r\n            }\r\n        }\r\n    }\r\n\r\n    function isResearcherVerified(address _account) public view returns(uint8 stuts) {\r\n        for(uint8 i=0; i<researchers.length; i++) {\r\n            if( researchers[i].account == _account) {\r\n                return researchers[i].status;\r\n            }\r\n        }\r\n    }\r\n\r\n    // only owner and verified researcher can accesss\r\n    function getPatientData() public isResearcher view returns(patient [] memory)   {\r\n        return patients;\r\n    }\r\n}",
  "sourcePath": "E:\\3 - Al Nafi\\Blockchain\\Labs\\side_projects\\patient_dms\\contracts\\PatientDMS.sol",
  "compiler": {
    "name": "solc",
    "version": "0.8.0+commit.c7dfd78e.Emscripten.clang"
  },
  "schemaVersion": "3.4.3",
  "updatedAt": "2022-01-31T15:10:58.522Z",
  "networkType": "ethereum",
  "devdoc": {
    "kind": "dev",
    "methods": {},
    "version": 1
  },
  "userdoc": {
    "kind": "user",
    "methods": {},
    "version": 1
  }
}